:100000000C94BD000C94E7000C94E7000C94E700FE
:100010000C94E7000C94E7000C94E7000C94E700C4
:100020000C94E7000C94E7000C94E7000C94E700B4
:100030000C94E7000C94E7000C94E7000C94E700A4
:100040000C94C4040C94E7000C9455030C948B039B
:100050000C94E7000C94E7000C94E7000C94E70084
:100060000C94E7000C94E7000C94E7000C94E70074
:100070000C94E7000C94E7000C94E7000C94E70064
:100080000C94E7000C94E7000C94E700B805B80561
:10009000C905AA05AD05B105B405C905C905BC0565
:1000A000C005C4050000000A0B0C000000000000A1
:1000B0000104050600000000000000000000000030
:1000C0000000000000000000000000000000000030
:1000D00000000000000000000001020408102040A1
:1000E000800102040810204080081001020408105A
:1000F000204080010201020408102040800480405A
:1001000020100804020101020408102040800505A7
:1001100005050505050502020202020202020707A3
:10012000040404040404040407070303030303038F
:10013000030307010101010101010106060606068C
:10014000060606000039003600330030002100208A
:1001500000630000003B00380035003200230062DD
:1001600000650000003A00370034003100220061D1
:10017000006400000F02BF03150211241FBECFEF61
:10018000D0E1DEBFCDBF11E0A0E0B1E0EAE5F1E1F2
:1001900000E00BBF02C007900D92A838B107D9F755
:1001A00022E0A8E8B1E001C01D92A134B207E1F756
:1001B00010E0CCEBD0E004C02197FE010E94810644
:1001C000CA3BD107C9F70E94B5040C94A0080C944F
:1001D0000000DF92EF92FF920F931F93CF93DF9374
:1001E00061E082E00E94CA0561E082E00E940606AA
:1001F00061E08AE00E94CA0561E08AE00E9406068A
:1002000061E08BE00E94CA0560E08BE00E94060678
:10021000C8E5D1E000E511E07E01F7018081F2E060
:10022000EF0EF11C61E00E94CA05F801D0800E5F5C
:100230001F4F60E08D2D0E94CA0561E08D2D0E9448
:100240000606F1E008351F0741F7289681E0C83718
:10025000D80701F726E040E855E260E070E087E962
:1002600091E0DF91CF911F910F91FF90EF90DF9080
:100270000C94F002CF92DF92EF92FF920F931F93B4
:10028000CF93DF93C8E5D1E02FE8E22E21E0F22EF4
:100290006E0100E010E0D6018C91B2E0CB0ED11CD3
:1002A000D701ED91FC91EE0FFF1FEE0FFF1FE25FF4
:1002B000FE4FE00FF11F60810E9406060F5F1F4F87
:1002C0000430110541F72896B2E0EB0EF11CE1E095
:1002D000C837DE07E9F6DF91CF911F910F91FF90AC
:1002E000EF90DF90CF900895CF93DF9390918801A6
:1002F00081E0892780938801CFE8D1E04E81405D7D
:100300006AE070E089E891E00E94A7044C81405DBA
:100310006CE070E089E891E00E94A7044A81405DAA
:100320006EE070E089E891E00E94A7044881405D9A
:1003300060E170E089E891E00E94A70440918801A3
:10034000405D63E170E089E891E00E94A70469E8FC
:1003500071E087E991E00E941604609188018BE0CA
:10036000DF91CF910C940606AF92BF92CF92DF92AD
:10037000EF92FF920F931F93CF93DF932AE0E22E29
:10038000F12C00E511E08AE0A82E81E0B82E96E07D
:10039000C92E91E0D92ECFE8D1E0F80180810E5F1F
:1003A0001F4F0E9435069C0191E02115310509F48B
:1003B00090E0F50191935F01F6018081981771F04B
:1003C000232B61F4288139812A3031052CF42F5FE9
:1003D0003F4F3983288302C019821882F601919316
:1003E0006F012296F1E008351F07B9F60E943A0125
:1003F00064E670E080E090E00E94340581E0E81A55
:10040000F10809F0BECFDF91CF911F910F91FF90BE
:10041000EF90DF90CF90BF90AF900C9474016AE39F
:1004200071E089E891E00C94920489E891E00C94E1
:100430002404FC01918D228D892F90E0805C9F4FD8
:10044000821B91098F7399270895FC01918D828DEC
:10045000981731F0828DE80FF11D858D90E0089599
:100460008FEF9FEF0895FC01918D828D981761F0B9
:10047000828DDF01A80FB11D5D968C91928D9F5FDB
:100480009F73928F90E008958FEF9FEF089585EB13
:1004900093E0892B41F080E090E0892B21F00E94CD
:1004A000B50381110DC080E090E0892B71F080E0F0
:1004B00090E0892B51F00E940000811104C0089542
:1004C0000E940000F0CF0C9400000895FC01848D80
:1004D000DF01A80FB11DA35ABF4F2C91848D90E06E
:1004E00001968F739927848FA689B7892C93A08949
:1004F000B1898C9180648C93938D848D981306C000
:100500000288F389E02D80818F7D80830895EF92AA
:10051000FF920F931F93CF93DF93EC0181E0888FBD
:100520009B8D8C8D981305C0E889F989808185FDA4
:1005300024C0F62E0B8D10E00F5F1F4F0F73112795
:10054000E02E8C8DE8120CC00FB607FCFACFE889BC
:10055000F989808185FFF5CFCE010E946602F1CF37
:100560008B8DFE01E80FF11DE35AFF4FF0820B8FD8
:10057000EA89FB898081806207C0EE89FF896083F8
:10058000E889F98980818064808381E090E0DF914F
:10059000CF911F910F91FF90EF900895CF93DF932C
:1005A000EC01888D8823C9F0EA89FB89808185FD6B
:1005B00005C0A889B9898C9186FD0FC00FB607FCCC
:1005C000F5CF808185FFF2CFA889B9898C9185FF0D
:1005D000EDCFCE010E946602E7CFDF91CF91089563
:1005E000CF92DF92EF92FF921F93CF93DF93EC01B4
:1005F0006A017B01122FE889F98982E08083411525
:10060000514E61057105B1F060E079E08DE390E055
:10061000A70196010E945F06DA01C9010197A109AD
:10062000B109B695A795979587959C01211580E10D
:100630003807A8F0E889F989108260E874E88EE14B
:1006400090E0A70196010E945F06DA01C9010197B7
:10065000A109B109B695A795979587959C01EC8559
:10066000FD853083EE85FF852083188EEC89FD891A
:100670001083EA89FB89808180618083EA89FB8914
:10068000808188608083EA89FB898081806880839B
:10069000EA89FB8980818F7D8083DF91CF911F91D3
:1006A000FF90EF90DF90CF9008951F920F920FB6BA
:1006B0000F9211240BB60F922F938F939F93EF936A
:1006C000FF93E091A701F091A8018081E091AD0135
:1006D000F091AE0182FD12C090818091B0018F5FD8
:1006E0008F732091B101821751F0E091B001F0E0D9
:1006F000E956FE4F958F8093B00101C08081FF9134
:10070000EF919F918F912F910F900BBE0F900FBE85
:100710000F901F9018951F920F920FB60F921124F1
:100720000BB60F922F933F934F935F936F937F93EB
:100730008F939F93AF93BF93EF93FF9387E991E0DC
:100740000E946602FF91EF91BF91AF919F918F91AF
:100750007F916F915F914F913F912F910F900BBEC1
:100760000F900FBE0F901F90189587E991E00E949F
:10077000190221E0892B09F420E0822F0895E7E98E
:10078000F1E01382128288EE93E0A0E0B0E084836F
:100790009583A683B7838CE791E09183808380E97A
:1007A00090E09587848789E290E0978786878BE23F
:1007B00090E0918B808B8AE290E0938B828B85E92D
:1007C00090E0958B848B8CE290E0978B868B118EDA
:1007D000128E138E148E0895CF92DF92EF92FF92B5
:1007E0000F931F93CF93DF936C017A018B01C0E0CD
:1007F000D0E0CE15DF0581F0D8016D918D01D601D5
:10080000ED91FC910190F081E02DC6010995892BB5
:1008100011F02196EECF7E01C701DF91CF911F919C
:100820000F91FF90EF90DF90CF900895DB01149629
:100830004D915C9115976D917C91DC01ED91FC914E
:100840000280F381E02D0994FC01808191810C9458
:100850002207CF93DF93EC0188819981009711F0F3
:100860000E942207198218821D821C821B821A8212
:10087000DF91CF9108950F931F93CF93DF93EC01F6
:100880008B016F5F7F4F888199810E94AB07009732
:1008900031F0998388831B830A8381E001C080E063
:1008A000DF91CF911F910F910895CF93DF93EC01CA
:1008B00088819981892B29F08A819B8186179707E6
:1008C00060F4CE010E943B04882341F08C819D811D
:1008D000892B19F4E881F981108281E0DF91CF91B1
:1008E0000895EF92FF920F931F93CF93DF93EC0144
:1008F0007B018A01BA010E945504811104C0CE0116
:100900000E94290407C01D830C83B7018881998147
:100910000E949908CE01DF91CF911F910F91FF9016
:10092000EF900895FC0111821082138212821582C9
:1009300014826115710551F0FB0101900020E9F767
:100940003197AF01461B570B0C9471040895FC01BD
:10095000248135816217730730F480819181FC0115
:10096000E60FF71F4083089508950E9470050E94C6
:10097000B4040E94E900C7E4D2E00E94B4012097C9
:10098000E1F30E944702F9CF1F920F920FB60F9228
:1009900011242F933F938F939F93AF93BF93809195
:1009A000350290913602A0913702B0913802309111
:1009B000340223E0230F2D3720F40196A11DB11D31
:1009C00005C026E8230F0296A11DB11D2093340215
:1009D0008093350290933602A0933702B093380289
:1009E0008091390290913A02A0913B02B0913C0271
:1009F0000196A11DB11D8093390290933A02A093F4
:100A00003B02B0933C02BF91AF919F918F913F9178
:100A10002F910F900FBE0F901F9018953FB7F8942D
:100A20008091390290913A02A0913B02B0913C0230
:100A300022B706B600FE05C02F3F19F00196A11D92
:100A4000B11D3FBFBA2FA92F982F8827820F911D64
:100A5000A11DB11DBC01CD0142E0660F771F881FAB
:100A6000991F4A95D1F708958F929F92AF92BF92A6
:100A7000CF92DF92EF92FF926B017C010E940E05F4
:100A80004B015C01C114D104E104F10401F10E94A5
:100A90005E060E940E05DC01CB0188199909AA099E
:100AA000BB09883E9340A105B10560F321E0C21A5D
:100AB000D108E108F10888EE880E83E0981EA11C99
:100AC000B11CC114D104E104F10419F7DBCFFF908C
:100AD000EF90DF90CF90BF90AF909F908F90089550
:100AE000789483B7806483BF83B7886083BF83B7FC
:100AF000846083BF87B7816087BF1EBC8EB582606C
:100B00008EBD8EB581608EBD8FB581608FBD85B580
:100B1000846085BD85B5806485BDEAE8F0E08081AC
:100B200082608083808181608083EBE8F0E0808157
:100B300081608083329A319A309A379A1AB8089530
:100B400090E0FC013197EC30F10518F5EA5BFF4FBE
:100B50000C9481068FB58F7702C08FB58F7D8FBDC6
:100B600008958FB5877FFBCF85B58F7D85BD0895AF
:100B700083B78F7D83BF089580918B008F7707C0E7
:100B800080918B008F7D03C080918B00877F809345
:100B90008B000895CF93DF9390E0FC01E752FF4F65
:100BA0002491FC01E25FFE4F8491882361F190E083
:100BB000880F991FFC01ED59FE4FC591D491FC019E
:100BC000ED5AFE4FA591B491611109C09FB7F894F9
:100BD0008881209582238883EC912E230BC062307C
:100BE00061F49FB7F8948881322F309583238883EE
:100BF000EC912E2B2C939FBF06C08FB7F894E88101
:100C00002E2B28838FBFDF91CF9108951F93CF9311
:100C1000DF93282F30E0F901EC55FF4F8491F90163
:100C2000E752FF4FD491F901E25FFE4FC491CC230C
:100C3000C1F0162F81110E94A005EC2FF0E0EE0FFD
:100C4000FF1FED5AFE4FA591B4919FB7F894111173
:100C500004C08C91D095D82302C0EC91DE2BDC939C
:100C60009FBFDF91CF911F910895CF93DF93282FDE
:100C700030E0F901EC55FF4F8491F901E752FF4F45
:100C8000D491F901E25FFE4FC491CC2391F0811120
:100C90000E94A005EC2FF0E0EE0FFF1FED5BFE4F72
:100CA000A591B491EC91ED2381E090E021F480E0F6
:100CB00002C080E090E0DF91CF9108950895A1E215
:100CC0001A2EAA1BBB1BFD010DC0AA1FBB1FEE1FC6
:100CD000FF1FA217B307E407F50720F0A21BB30B11
:100CE000E40BF50B661F771F881F991F1A9469F78D
:100CF00060957095809590959B01AC01BD01CF01E9
:100D00000895EE0FFF1F0024001C0BBE0790F69104
:100D1000E02D09940F931F93CF93DF9382309105B9
:100D200010F482E090E0E0913F02F091400220E078
:100D300030E0A0E0B0E0309719F1408151810281AC
:100D4000138148175907C8F08417950769F410975D
:100D500031F012960C93129713961C9327C00093B0
:100D60003F021093400222C02115310519F04217AD
:100D7000530718F49A01BD01EF01DF01F801DBCF41
:100D800021153105F9F0281B390B2430310580F489
:100D90008A819B816115710521F0FB019383828318
:100DA00004C09093400280933F02FE01329644C0FB
:100DB000FE01E20FF31F8193919322503109398391
:100DC00028833AC020913D0230913E02232B41F40A
:100DD000209102013091030130933E0220933D02A5
:100DE00020910001309101012115310541F42DB709
:100DF0003EB74091040150910501241B350BE09151
:100E00003D02F0913E02E217F307A0F42E1B3F0BC8
:100E10002817390778F0AC014E5F5F4F241735076C
:100E200048F04E0F5F1F50933E0240933D02819366
:100E3000919302C0E0E0F0E0CF01DF91CF911F91EC
:100E40000F910895CF93DF93009709F481C0FC01BF
:100E5000329713821282A0913F02B0914002109704
:100E600081F420813181820F931F20913D023091C6
:100E70003E022817390751F5F0933E02E0933D02F8
:100E800067C0ED0120E030E0CE17DF0740F44A8173
:100E90005B819E0141155105F1F0EA01F5CFD38345
:100EA000C28340815181840F951FC817D90759F417
:100EB00088819981840F951F0296918380838A810E
:100EC0009B81938382832115310529F4F09340029D
:100ED000E0933F023DC0E901FB83EA8349915991C8
:100EE000C40FD51FEC17FD0761F480819181840F39
:100EF000951F0296E90199838883828193819B8360
:100F00008A83E0E0F0E012968D919C911397009710
:100F100019F0FD01DC01F7CF8D919C9111979D0196
:100F20002E5F3F4F820F931F20913D0230913E0272
:100F30002817390769F4309729F41092400210926B
:100F40003F0202C013821282B0933E02A0933D0280
:100F5000DF91CF9108956F927F928F929F92AF927F
:100F6000BF92CF92DF92EF92FF920F931F93CF9396
:100F7000DF93009789F4CB01DF91CF911F910F91FF
:100F8000FF90EF90DF90CF90BF90AF909F908F90A9
:100F90007F906F900C948A06FC01E60FF71F9C016E
:100FA00022503109E217F30708F4A9C0EC01D90176
:100FB0000D911C91119706171707B0F00530110518
:100FC00008F49BC0C80104978617970708F495C0DA
:100FD00002501109061B170B019311936D937C931B
:100FE000CF010E94220789C05B01A01AB10A4C01FF
:100FF000800E911EA0913F02B0914002612C712C95
:10100000E12CF12C109709F446C08D919C91119719
:10101000A815B905B1F56C0142E0C40ED11CCA1483
:10102000DB0478F14C018A189B08640142E0C40E8D
:10103000D11C1296BC9012971396AC91B5E0CB16CA
:10104000D10440F0B282A38391828082D9016D9352
:101050007C9309C00E5F1F4F800F911FF901918390
:101060008083EB2DFA2FE114F10431F0D7011396B0
:10107000FC93EE93129741C0F0934002E0933F023D
:101080003CC06816790608F43C017D0112960D906B
:10109000BC91A02DB7CF80913D0290913E02881661
:1010A0009906E1F466167706C8F4809100019091E4
:1010B0000101009741F48DB79EB740910401509112
:1010C0000501841B950BE817F907C8F4F0933E025D
:1010D000E0933D02F901718360830FC0CB010E9450
:1010E0008A067C01009759F0A801BE010E94900871
:1010F000CE010E942207C70104C0CE0102C080E0D9
:1011000090E0DF91CF911F910F91FF90EF90DF90D2
:10111000CF90BF90AF909F908F907F906F900895E9
:10112000FB01DC0102C001900D9241505040D8F704
:101130000895FB01DC0101900D920020E1F7089574
:1011400010E0CCEBD0E004C0FE010E9481062196A5
:0A115000CD3BD107C9F7F894FFCF9B
:10115A0000004102800001000000010000000000C0
:10116A000000010000000001000001010000000071
:10117A00010001000100000101000101010000005D
:10118A00000101000001010101013A303030303024
:10119A0030303030583058305830583030610A00CA
:1011AA0004000500060007002C002B002A00290075
:1011BA0028002700260025001C001D001E001F0015
:1011CA002000210022002300000000008702EC0317
:0811DA00190233022502CE02C6
:020000021000EC
:10FC000001C0F4C011248FEF90E19EBF8DBF84B777
:10FC1000882349F0982F9A70923029F081FF02C012
:10FC200097EF94BF14D185E08EBD82E08BB988E157
:10FC30008AB986E08093950080E189B98EE0F4D09E
:10FC4000BD9A84E040E35CEF34E020E25DBD4CBD52
:10FC500036BF06B602FEFDCF98B3922798BBA89593
:10FC60008150A1F7C0E0D0E0D8D0813469F4D5D07C
:10FC7000182FDED0123809F4AFC0113811F486E025
:10FC800001C083E0C6D0AFC0823411F484E103C068
:10FC9000853419F485E0D4D0A6C0853579F4BDD07B
:10FCA000C82FBBD0D0E0D82B8BB7D7FF02C0816064
:10FCB00001C08E7F8BBFCC0FDD1F94C0863581F4D1
:10FCC000ACD08D3449F4A9D01BB7A7D01170880FE0
:10FCD000182B1BBF81E001C083E0B2D080E0D2CFFF
:10FCE000843609F04DC099D0082F10E0102F00275E
:10FCF00094D0082B92D0B82E7801C12CDD24D39457
:10FD00008CD0F60181936F01F1E0EF1AF108C1F791
:10FD10008FD085E4B81212C06801D3947E0100E050
:10FD200011E0C016D10609F45EC0F80161918F019F
:10FD3000C7019BD0FFEFEF1AFF0AF3CF40E050E07E
:10FD400063E0CE0153D06E01E12CFF24F394F70160
:10FD50004081818150E0582B61E0C60147D0F2E03C
:10FD6000CF0ED11C0250110982E0E80EF11C0115E2
:10FD7000110569F740E050E065E0CE0137D033C0AF
:10FD8000843719F54AD0082F10E0102F002745D0EE
:10FD9000082B43D0F82E4CD0E5E4FE120DC07E01B6
:10FDA000C7015BD036D001501109FFEFEF1AFF0AEF
:10FDB00001151105A9F717C07E01F70187917F0191
:10FDC00028D001501109C9F70EC0853739F430D059
:10FDD0008EE11FD087E91DD082E054CF813511F428
:10FDE00088E022D025D080E114D03ECFFC010A016A
:10FDF00060936800E89511248091680080FDFCCF35
:10FE0000667031F0452B21F481E180936800E8951C
:10FE100008955D9BFECF8CB908955F9BFECF5C99E2
:10FE200001C0A8958CB1089598E191BD81BD089558
:10FE3000F4DF803219F088E0F7DFFFCF84E1E9CF0B
:10FE4000CF93C82FEADFC150E9F7CF91F1CF282E29
:10FE500080E0EADFE0E0FF270994E199FECF9FBB55
:10FE60008EBBE09A99278DB30895262FE199FECF96
:10FE70009FBB8EBB2DBB0FB6F894E29AE19A0FBEE2
:04FE8000019608954A
:02FFFE000206F9
:040000031000FC00ED
:00000001FF
