:100000000C94BD000C94E7000C94E7000C94E700FE
:100010000C94E7000C94E7000C94E7000C94E700C4
:100020000C94E7000C94E7000C94E7000C94E700B4
:100030000C94E7000C94E7000C94E7000C94E700A4
:100040000C946E060C94E7000C94A0030C94D60359
:100050000C94E7000C94E7000C94E7000C94E70084
:100060000C94E7000C94E7000C94E7000C94E70074
:100070000C94E7000C94E7000C94E7000C94E70064
:100080000C94E7000C94E7000C94E70000070007CD
:100090001107F206F506F906FC0611071107040719
:1000A00008070C070000000A0B0C0000000000000D
:1000B0000104050600000000000000000000000030
:1000C0000000000000000000000000000000000030
:1000D00000000000000000000001020408102040A1
:1000E000800102040810204080081001020408105A
:1000F000204080010201020408102040800480405A
:1001000020100804020101020408102040800505A7
:1001100005050505050502020202020202020707A3
:10012000040404040404040407070303030303038F
:10013000030307010101010101010106060606068C
:10014000060606000039003600330030002100208A
:1001500000630000003B00380035003200230062DD
:1001600000650000003A00370034003100220061D1
:100170000064000033010A043F0111241FBECFEFC9
:10018000D0E1DEBFCDBF11E0A0E0B1E0EAEFF3E1E6
:1001900000E00BBF02C007900D92A238B107D9F75B
:1001A00022E0A2E8B1E001C01D92A134B207E1F75C
:1001B00010E0CCEBD0E004C02197FE010E94C807FC
:1001C000CA3BD107C9F70E945F060C94F0090C9452
:1001D0000000DF92EF92FF920F931F93CF93DF9374
:1001E00026E040E855E260E070E086E991E00E9498
:1001F0003B0361E08AE00E94120761E08AE00E940E
:100200004E0761E082E00E94120760E082E00E94F7
:100210004E07C2E4D1E00AE311E07E01F7018081DC
:10022000F2E0EF0EF11C61E00E941207F801D080AD
:100230000E5F1F4F60E08D2D0E94120761E08D2D33
:100240000E944E07F1E002341F0741F7289681E033
:10025000C236D80701F7DF91CF911F910F91FF9020
:10026000EF90DF90089564E771E080E991E00E94EB
:10027000870564E771E08AE891E00C9487058AE8D5
:1002800091E00E94190580E991E00C9419057F9294
:100290008F929F92AF92BF92CF92DF92EF92FF9296
:1002A0000F931F93CF93DF937AE0C72ED12CEAE808
:1002B000AE2EE1E0BE2E86E991E00E94640218169F
:1002C00019060CF08CC086E991E00E947E02C82FCE
:1002D000682F80E991E00E94F805CA3061F78091AB
:1002E000940190919501459739F064E771E080E9B8
:1002F00091E00E94B305DFCF6AE871E080E991E008
:100300000E943B068111F1CF60E971E08AE891E03B
:100310000E949C0562E8E62E61E0F62E8701CAE0A5
:10032000D0E0BE018AE891E00E944C06DC018C918D
:10033000082E000C990BC0970A9788F4BE018AE832
:1003400091E00E944C06FC018081082E000C990B64
:10035000C097D80117969C938E93169703C0F80107
:10036000D782C682229602501109C231D105C9F640
:10037000C2E8D1E0699179914AE050E086E991E0E4
:100380000E941205AC16BD06A9F786E991E00E940D
:100390007D04C2E4D1E04E0100E010E0D4018C9174
:1003A000B2E08B0E911CD701ED91FC91EE0FFF1F77
:1003B000EE0FFF1FE25FFE4FE00FF11F60810E9412
:1003C0004E070F5F1F4F0430110541F72896B2E02A
:1003D000EB0EF11CE1E0C236DE07E9F686CF3AE328
:1003E000C32E31E0D32ECAE0D1E006E011E042E8AE
:1003F000E42E41E0F42E4701D6017C90B2E0CB0E12
:10040000D11C872D0E947D0721E0892B09F420E073
:100410005E012883F8018081281799F0872D0E94BA
:100420007D07892B71F4D4018D919C9111978A30AD
:10043000910524F401968D939C9303C0F4011182DD
:1004400010822196D5018C91F80181938F01F2E001
:100450008F0E911C81E0CE30D80771F6C2E4D1E056
:1004600022E6C22E21E0D22E5E0100E010E0D5018E
:100470008C91B2E0AB0EB11CD701ED91FC91EE0F67
:10048000FF1FEE0FFF1FE25FFE4FE00FF11F6081C5
:100490000E944E070F5F1F4F0430110541F7289649
:1004A000B2E0EB0EF11CCC16DD06F1F6DF91CF9138
:1004B0001F910F91FF90EF90DF90CF90BF90AF9082
:1004C0009F908F907F900895FC01918D228D892FB0
:1004D00090E0805C9F4F821B91098F73992708954C
:1004E000FC01918D828D981731F0828DE80FF11DFE
:1004F000858D90E008958FEF9FEF0895FC01918D19
:10050000828D981761F0828DDF01A80FB11D5D9675
:100510008C91928D9F5F9F73928F90E008958FEFE3
:100520009FEF089580E094E0892B41F080E090E017
:10053000892B21F00E94000481110DC080E090E021
:10054000892B71F080E090E0892B51F00E9400002F
:10055000811104C008950E940000F0CF0C940000A7
:100560000895FC01848DDF01A80FB11DA35ABF4F70
:100570002C91848D90E001968F739927848FA689A2
:10058000B7892C93A089B1898C9180648C93938DC9
:10059000848D981306C00288F389E02D80818F7DB9
:1005A00080830895EF92FF920F931F93CF93DF9371
:1005B000EC0181E0888F9B8D8C8D981305C0E889B4
:1005C000F989808185FD24C0F62E0B8D10E00F5F28
:1005D0001F4F0F731127E02E8C8DE8120CC00FB641
:1005E00007FCFACFE889F989808185FFF5CFCE0134
:1005F0000E94B102F1CF8B8DFE01E80FF11DE35A8D
:10060000FF4FF0820B8FEA89FB898081806207C0EF
:10061000EE89FF896083E889F9898081806480831D
:1006200081E090E0DF91CF911F910F91FF90EF90CB
:100630000895CF93DF93EC01888D8823C9F0EA8970
:10064000FB89808185FD05C0A889B9898C9186FDCB
:100650000FC00FB607FCF5CF808185FFF2CFA889C8
:10066000B9898C9185FFEDCFCE010E94B102E7CF11
:10067000DF91CF910895CF92DF92EF92FF921F9377
:10068000CF93DF93EC016A017B01122FE889F9898E
:1006900082E080834115514E61057105B1F060E043
:1006A00079E08DE390E0A70196010E94A607DA01A8
:1006B000C9010197A109B109B695A79597958795A5
:1006C0009C01211580E13807A8F0E889F98910829A
:1006D00060E874E88EE190E0A70196010E94A60709
:1006E000DA01C9010197A109B109B695A7959795B6
:1006F00087959C01EC85FD853083EE85FF85208301
:10070000188EEC89FD891083EA89FB8980818061DC
:100710008083EA89FB89808188608083EA89FB89FC
:10072000808180688083EA89FB8980818F7D8083D6
:10073000DF91CF911F91FF90EF90DF90CF900895C0
:100740001F920F920FB60F9211240BB60F922F9398
:100750008F939F93EF93FF93E091A601F091A701F0
:100760008081E091AC01F091AD0182FD12C09081D9
:100770008091AF018F5F8F732091B001821751F08C
:10078000E091AF01F0E0EA56FE4F958F8093AF0104
:1007900001C08081FF91EF919F918F912F910F90D8
:1007A0000BBE0F900FBE0F901F9018951F920F92C7
:1007B0000FB60F9211240BB60F922F933F934F93C6
:1007C0005F936F937F938F939F93AF93BF93EF93B9
:1007D000FF9386E991E00E94B102FF91EF91BF91F2
:1007E000AF919F918F917F916F915F914F913F91C9
:1007F0002F910F900BBE0F900FBE0F901F9018956A
:1008000086E991E00E94640221E0892B09F420E04E
:10081000822F0895E6E9F1E01382128288EE93E0D8
:10082000A0E0B0E084839583A683B78386E691E059
:100830009183808380E990E09587848789E290E0C6
:10084000978786878BE290E0918B808B8AE290E09D
:10085000938B828B85E990E0958B848B8CE290E082
:10086000978B868B118E128E138E148E0895CF92D5
:10087000DF92EF92FF920F931F93CF93DF936C0160
:100880007A018B01C0E0D0E0CE15DF0581F0D80100
:100890006D918D01D601ED91FC910190F081E02DDB
:1008A000C6010995892B11F02196EECF7E01C70173
:1008B000DF91CF911F910F91FF90EF90DF90CF903C
:1008C00008956115710579F0FB0101900020E9F7A9
:1008D0003197AF01461B570BDC01ED91FC91028073
:1008E000F381E02D099480E090E00895DC01ED9122
:1008F000FC910190F081E02D099462E771E00C9485
:1009000061048F929F92AF92BF92EF92FF920F93EA
:100910001F93CF93DF93CDB7DEB7A1970FB6F894AF
:10092000DEBF0FBECDBF7C01FA01CB0119A2223080
:1009300008F42AE08E010F5D1F4F822E912CA12C0E
:10094000B12CBF01A50194010E94A607F901CA01BB
:10095000015011096A3014F4605D01C0695CD8016E
:100960006C93232B242B252B61F7B801C7010E9420
:100970006104A1960FB6F894DEBF0FBECDBFDF9124
:10098000CF911F910F91FF90EF90BF90AF909F90EC
:100990008F900895CF92DF92EF92FF920F931F9363
:1009A000CF93DF932115310581F4DC01ED91FC91AA
:1009B0000190F081E02D642FDF91CF911F910F9175
:1009C000FF90EF90DF90CF9009942A30310501F528
:1009D00077FF1DC06A017B01EC016DE20E94760485
:1009E0008C0144275527BA014C195D096E097F090E
:1009F0002AE0CE010E948104800F911FDF91CF91E8
:100A00001F910F91FF90EF90DF90CF9008952AE013
:100A1000DF91CF911F910F91FF90EF90DF90CF90DA
:100A20000C9481049A01AB01770F660B770B0C9441
:100A3000CA04FC01808191810C946908CF93DF93F3
:100A4000EC0188819981009711F00E946908198250
:100A500018821D821C821B821A82DF91CF91089519
:100A60000F931F93CF93DF93EC018B016F5F7F4F49
:100A7000888199810E94F208009731F099838883D8
:100A80001B830A8381E001C080E0DF91CF911F9139
:100A90000F910895CF93DF93EC0188819981892B81
:100AA00029F08A819B818617970760F4CE010E9406
:100AB0003005882341F08C819D81892B19F4E881D0
:100AC000F981108281E0DF91CF910895EF92FF923A
:100AD0000F931F93CF93DF93EC017B018A01BA013F
:100AE0000E944A05811104C0CE010E941E0507C064
:100AF0001D830C83B701888199810E94E909CE0189
:100B0000DF91CF911F910F91FF90EF900895FC011D
:100B1000118210821382128215821482611571056E
:100B200051F0FB0101900020E9F73197AF01461B1E
:100B3000570B0C9466050895CF93DF93EC01FB01EE
:100B40008617970761F0608171816115710529F041
:100B5000448155810E94660502C00E941E05CE0197
:100B6000DF91CF910895CF93DF93EC01611571056B
:100B700059F0FB0101900020E9F73197AF01461BC6
:100B8000570B0E94660502C00E941E05CE01DF9130
:100B9000CF910895EF92FF920F931F93CF93DF931E
:100BA0006115710511F480E01CC041155105C1F0BB
:100BB0007B01EC018C819D818A01080F191FB8010E
:100BC000CE010E944A05882371F3288139818C81E6
:100BD0009D81B701820F931F0E94E9091D830C8339
:100BE00081E0DF91CF911F910F91FF90EF900895D9
:100BF000CF93DF9300D0CDB7DEB769831A8241E08F
:100C000050E0BE016F5F7F4F0E94CA050F900F90AA
:100C1000DF91CF910895CF93DF93DC01ED91FC91AB
:100C2000EB01A881B981309711F01097C9F41097A2
:100C300059F0EB012C813D81232B31F08C9190E018
:100C400091958195910914C0309781F0DC0114963B
:100C50008D919C911597892B49F0808190E008C077
:100C6000BD01CF01DF91CF910C94E00980E090E0CD
:100C7000DF91CF910895FC0144815581FB012481CE
:100C800035814217530729F40E940B0621E0892B76
:100C900009F020E0822F0895FC012481358162173C
:100CA000730720F480819181009729F41092330218
:100CB00083E392E00895860F971F089508950E9498
:100CC000B8060E945E060E94E900C2E9D2E00E94D6
:100CD00047012097E1F30E949202F9CF1F920F92F1
:100CE0000FB60F9211242F933F938F939F93AF933F
:100CF000BF938091350290913602A0913702B09156
:100D000038023091340223E0230F2D3720F401966E
:100D1000A11DB11D05C026E8230F0296A11DB11D1E
:100D2000209334028093350290933602A0933702C9
:100D3000B09338028091390290913A02A0913B021F
:100D4000B0913C020196A11DB11D80933902909390
:100D50003A02A0933B02B0933C02BF91AF919F91A6
:100D60008F913F912F910F900FBE0F901F9018956C
:100D7000789483B7806483BF83B7886083BF83B769
:100D8000846083BF87B7816087BF1EBC8EB58260D9
:100D90008EBD8EB581608EBD8FB581608FBD85B5EE
:100DA000846085BD85B5806485BDEAE8F0E080811A
:100DB00082608083808181608083EBE8F0E08081C5
:100DC00081608083329A319A309A379A1AB808959E
:100DD00090E0FC013197EC30F10518F5EA5BFF4F2C
:100DE0000C94C8078FB58F7702C08FB58F7D8FBDEC
:100DF00008958FB5877FFBCF85B58F7D85BD08951D
:100E000083B78F7D83BF089580918B008F7707C054
:100E100080918B008F7D03C080918B00877F8093B2
:100E20008B000895CF93DF9390E0FC01E752FF4FD2
:100E30002491FC01E25FFE4F8491882361F190E0F0
:100E4000880F991FFC01ED59FE4FC591D491FC010B
:100E5000ED5AFE4FA591B491611109C09FB7F89466
:100E60008881209582238883EC912E230BC06230E9
:100E700061F49FB7F8948881322F3095832388835B
:100E8000EC912E2B2C939FBF06C08FB7F894E8816E
:100E90002E2B28838FBFDF91CF9108951F93CF937F
:100EA000DF93282F30E0F901EC55FF4F8491F901D1
:100EB000E752FF4FD491F901E25FFE4FC491CC237A
:100EC000C1F0162F81110E94E806EC2FF0E0EE0F22
:100ED000FF1FED5AFE4FA591B4919FB7F8941111E1
:100EE00004C08C91D095D82302C0EC91DE2BDC930A
:100EF0009FBFDF91CF911F910895CF93DF93282F4C
:100F000030E0F901EC55FF4F8491F901E752FF4FB2
:100F1000D491F901E25FFE4FC491CC2391F081118D
:100F20000E94E806EC2FF0E0EE0FFF1FED5BFE4F96
:100F3000A591B491EC91ED2381E090E021F480E063
:100F400002C080E090E0DF91CF910895A1E21A2ED7
:100F5000AA1BBB1BFD010DC0AA1FBB1FEE1FFF1F5D
:100F6000A217B307E407F50720F0A21BB30BE40BAD
:100F7000F50B661F771F881F991F1A9469F76095F4
:100F80007095809590959B01AC01BD01CF010895AE
:100F9000EE0FFF1F0024001C0BBE0790F691E02D02
:100FA00009940F931F93CF93DF938230910510F430
:100FB00082E090E0E0913F02F091400220E030E0DA
:100FC000A0E0B0E0309719F1408151810281138196
:100FD00048175907C8F08417950769F4109731F03E
:100FE00012960C93129713961C9327C000933F02FE
:100FF0001093400222C02115310519F04217530702
:1010000018F49A01BD01EF01DF01F801DBCF2115D2
:101010003105F9F0281B390B2430310580F48A8121
:101020009B816115710521F0FB019383828304C0CC
:101030009093400280933F02FE01329644C0FE012D
:10104000E20FF31F81939193225031093983288352
:101050003AC020913D0230913E02232B41F4209171
:1010600002013091030130933E0220933D02209112
:101070000001309101012115310541F42DB73EB732
:101080004091040150910501241B350BE0913D0274
:10109000F0913E02E217F307A0F42E1B3F0B281736
:1010A000390778F0AC014E5F5F4F2417350748F0E1
:1010B0004E0F5F1F50933E0240933D0281939193E8
:1010C00002C0E0E0F0E0CF01DF91CF911F910F91DE
:1010D0000895CF93DF93009709F481C0FC01329704
:1010E00013821282A0913F02B0914002109781F4C6
:1010F00020813181820F931F20913D0230913E0269
:101100002817390751F5F0933E02E0933D0267C07E
:10111000ED0120E030E0CE17DF0740F44A815B812B
:101120009E0141155105F1F0EA01F5CFD383C28349
:1011300040815181840F951FC817D90759F48881C0
:101140009981840F951F0296918380838A819B8168
:10115000938382832115310529F4F0934002E093B3
:101160003F023DC0E901FB83EA8349915991C40FD5
:10117000D51FEC17FD0761F480819181840F951FC5
:101180000296E90199838883828193819B838A8374
:10119000E0E0F0E012968D919C911397009719F082
:1011A000FD01DC01F7CF8D919C9111979D012E5F80
:1011B0003F4F820F931F20913D0230913E0228172E
:1011C000390769F4309729F41092400210923F02D7
:1011D00002C013821282B0933E02A0933D02DF91BF
:1011E000CF9108956F927F928F929F92AF92BF920C
:1011F000CF92DF92EF92FF920F931F93CF93DF93E3
:10120000009789F4CB01DF91CF911F910F91FF904F
:10121000EF90DF90CF90BF90AF909F908F907F9096
:101220006F900C94D107FC01E60FF71F9C01225030
:101230003109E217F30708F4A9C0EC01D9010D91B7
:101240001C91119706171707B0F00530110508F427
:101250009BC0C80104978617970708F495C00250F1
:101260001109061B170B019311936D937C93CF010A
:101270000E94690889C05B01A01AB10A4C01800E66
:10128000911EA0913F02B0914002612C712CE12C83
:10129000F12C109709F446C08D919C911197A815D7
:1012A000B905B1F56C0142E0C40ED11CCA14DB04CF
:1012B00078F14C018A189B08640142E0C40ED11CED
:1012C0001296BC9012971396AC91B5E0CB16D10450
:1012D00040F0B282A38391828082D9016D937C9386
:1012E00009C00E5F1F4F800F911FF901918380830A
:1012F000EB2DFA2FE114F10431F0D7011396FC9392
:10130000EE93129741C0F0934002E0933F023CC03D
:101310006816790608F43C017D0112960D90BC9187
:10132000A02DB7CF80913D0290913E02881699067C
:10133000E1F466167706C8F48091000190910101EE
:10134000009741F48DB79EB740910401509105017B
:10135000841B950BE817F907C8F4F0933E02E0935D
:101360003D02F901718360830FC0CB010E94D10758
:101370007C01009759F0A801BE010E94D709CE0157
:101380000E946908C70104C0CE0102C080E090E05D
:10139000DF91CF911F910F91FF90EF90DF90CF9051
:1013A000BF90AF909F908F907F906F900895FB01BA
:1013B000DC0102C001900D9241505040D8F70895D1
:1013C000FB01DC018D91019080190110D9F3990B7B
:1013D0000895FB01DC0101900D920020E1F70895D2
:1013E00010E0CCEBD0E004C0FE010E94C8072196BB
:0A13F000CD3BD107C9F7F894FFCFF9
:1013FA00000041028000010000000100000000001E
:10140A0000000100000000010000010100000000CE
:10141A0001000100010000010100010101000000BA
:10142A00000101000001010101010500040007009B
:10143A0006002C002B002A0029002800270026007D
:10144A0025001C001D001E001F0020002100220094
:10145A00230000000000D202370464027E027002F8
:10146A0019030D0A006E616E00696E66006F76667A
:02147A00000070
:00000001FF
