:100000000C94B5000C94DF000C94DF000C94DF001E
:100010000C94DF000C94DF000C94DF000C94DF00E4
:100020000C94DF000C94DF000C94DF000C94DF00D4
:100030000C94DF000C94DF000C94DF000C94DF00C4
:100040000C9428050C94DF000C9412030C944803C4
:100050000C94DF000C94DF000C94DF000C94DF00A4
:100060000C94DF000C94DF000C94DF000C94DF0094
:100070000C94DF000C94DF000C94DF000C94DF0084
:100080000C94DF000C94DF000C94DF00BA05BA0575
:10009000CB05AC05AF05B305B605CB05CB05BE0555
:1000A000C205C6050000000A0B0C0000000000009D
:1000B0000104050600000000000000000000000030
:1000C0000000000000000000000000000000000030
:1000D00000000000000000000001020408102040A1
:1000E000800102040810204080081001020408105A
:1000F000204080010201020408102040800480405A
:1001000020100804020101020408102040800505A7
:1001100005050505050502020202020202020707A3
:10012000040404040404040407070303030303038F
:10013000030307010101010101010106060606068C
:1001400006060600003B003800350032002300623E
:1001500000650000003A00370034003100220061E1
:10016000006400001C017C03280111241FBECFEF96
:10017000D0E1DEBFCDBF11E0A0E0B1E0ECE1F1E104
:1001800000E00BBF02C007900D92A436B107D9F76B
:1001900022E0A4E6B1E001C01D92A332B207E1F76C
:1001A00010E0C4EBD0E004C02197FE010E94590684
:1001B000C23BD107C9F70E9419050C9481080C9421
:1001C00000000F931F93CF93DF9326E040E855E2A2
:1001D00060E070E088E791E00E94AD0261E082E0BB
:1001E0000E94CC0560E082E00E94080661E08BE09E
:1001F0000E94CC0561E08AE00E94CC0561E08AE0C3
:100200000E940806C3E3D1E000E010E0FE01E00F29
:10021000F11F61E080810E94CC050E5F1F4F083006
:100220001105A1F7289681E0C335D80769F7DF915A
:10023000CF911F910F91089562E371E082E791E001
:100240000E94410462E371E08CE691E00C94410469
:100250008CE691E00E94D30382E791E00C94D303F3
:10026000CF92DF92EF92FF920F931F93CF93DF9382
:100270003AE0E32EF12C88E791E00E94D6011816AF
:1002800019060CF061C088E791E00E94F001C82FC8
:10029000682F82E791E00E94B204CA3061F7809132
:1002A000760190917701459709F047C06CE671E0BF
:1002B00082E791E00E94F504882369F063E170E031
:1002C00082E791E00E940605DC016C9160538BE0AF
:1002D0000E94080632C062E771E08CE691E00E945D
:1002E000560404E611E0CAE0D0E0BE018CE691E0DD
:1002F0000E940605FC018081082E000C990BC09716
:100300000A9778F4BE018CE691E00E940605DC01B4
:100310008C91082E000C990BC097F8019783868367
:1003200005C0D8011796FC92EE92169722960250BD
:100330001109C231D105C9F6C1CF62E371E082E78C
:1003400091E00E946D0497CFC3E3D1E024E6E22E52
:1003500021E0F22E6E0100E010E0F6018081F2E073
:10036000CF0ED11CD701ED91FC91EE0FFF1FEE0FC8
:10037000FF1FEA5FFE4FE00FF11F60810E94080639
:100380000F5F1F4F0430110541F72896B2E0EB0EC6
:10039000F11CE1E0C335DE07E9F6DF91CF911F9153
:1003A0000F91FF90EF90DF90CF900895FC01918D19
:1003B000228D892F90E0805C9F4F821B91098F7363
:1003C00099270895FC01918D828D981731F0828DC7
:1003D000E80FF11D858D90E008958FEF9FEF089550
:1003E000FC01918D828D981761F0828DDF01A80F3D
:1003F000B11D5D968C91928D9F5F9F73928F90E05F
:1004000008958FEF9FEF089582E793E0892B41F0E5
:1004100080E090E0892B21F00E94720381110DC0D1
:1004200080E090E0892B71F080E090E0892B51F022
:100430000E940000811104C008950E940000F0CFC6
:100440000C9400000895FC01848DDF01A80FB11DFC
:10045000A35ABF4F2C91848D90E001968F739927FA
:10046000848FA689B7892C93A089B1898C918064E7
:100470008C93938D848D981306C00288F389E02DA8
:1004800080818F7D80830895EF92FF920F931F9359
:10049000CF93DF93EC0181E0888F9B8D8C8D981337
:1004A00005C0E889F989808185FD24C0F62E0B8D71
:1004B00010E00F5F1F4F0F731127E02E8C8DE81295
:1004C0000CC00FB607FCFACFE889F989808185FF57
:1004D000F5CFCE010E942302F1CF8B8DFE01E80FF4
:1004E000F11DE35AFF4FF0820B8FEA89FB8980816F
:1004F000806207C0EE89FF896083E889F98980817D
:100500008064808381E090E0DF91CF911F910F9113
:10051000FF90EF900895CF93DF93EC01888D8823AF
:10052000C9F0EA89FB89808185FD05C0A889B98960
:100530008C9186FD0FC00FB607FCF5CF808185FF3B
:10054000F2CFA889B9898C9185FFEDCFCE010E94A9
:100550002302E7CFDF91CF910895CF92DF92EF9200
:10056000FF921F93CF93DF93EC016A017B01122F5F
:10057000E889F98982E080834115514E6105710552
:10058000B1F060E079E08DE390E0A70196010E9470
:100590003706DA01C9010197A109B109B695A795F6
:1005A000979587959C01211580E13807A8F0E88987
:1005B000F989108260E874E88EE190E0A701960165
:1005C0000E943706DA01C9010197A109B109B69560
:1005D000A795979587959C01EC85FD853083EE85E1
:1005E000FF852083188EEC89FD891083EA89FB89B9
:1005F000808180618083EA89FB8980818860808333
:10060000EA89FB89808180688083EA89FB8980810F
:100610008F7D8083DF91CF911F91FF90EF90DF90CE
:10062000CF9008951F920F920FB60F9211240BB620
:100630000F922F938F939F93EF93FF93E0918801F5
:10064000F09189018081E0918E01F0918F0182FD0E
:1006500012C09081809191018F5F8F7320919201E0
:10066000821751F0E0919101F0E0E858FE4F958F2C
:100670008093910101C08081FF91EF919F918F91B3
:100680002F910F900BBE0F900FBE0F901F901895DB
:100690001F920F920FB60F9211240BB60F922F9349
:1006A0003F934F935F936F937F938F939F93AF93FA
:1006B000BF93EF93FF9388E791E00E942302FF919D
:1006C000EF91BF91AF919F918F917F916F915F91CA
:1006D0004F913F912F910F900BBE0F900FBE0F9037
:1006E0001F90189588E791E00E94D60121E0892BA0
:1006F00009F420E0822F0895E8E7F1E013821282E6
:1007000088EE93E0A0E0B0E084839583A683B7836E
:1007100087E591E09183808380E990E095878487E5
:1007200089E290E0978786878BE290E0918B808BBF
:100730008AE290E0938B828B85E990E0958B848BA5
:100740008CE290E0978B868B118E128E138E148E16
:100750000895CF92DF92EF92FF920F931F93CF9362
:10076000DF936C017A018B01C0E0D0E0CE15DF058C
:1007700081F0D8016D918D01D601ED91FC91019030
:10078000F081E02DC6010995892B11F02196EECF5D
:100790007E01C701DF91CF911F910F91FF90EF90E4
:1007A000DF90CF900895FC01808191810C94FA062E
:1007B000CF93DF93EC0188819981009711F00E941B
:1007C000FA06198218821D821C821B821A82DF910E
:1007D000CF9108950F931F93CF93DF93EC018B017B
:1007E0006F5F7F4F888199810E948307009731F066
:1007F000998388831B830A8381E001C080E0DF91B5
:10080000CF911F910F910895CF93DF93EC018881D1
:100810009981892B29F08A819B818617970760F43B
:10082000CE010E94EA03882341F08C819D81892BAF
:1008300019F4E881F981108281E0DF91CF91089568
:10084000EF92FF920F931F93CF93DF93EC017B0105
:100850008A01BA010E940404811104C0CE010E94E1
:10086000D80307C01D830C83B701888199810E943A
:100870007A08CE01DF91CF911F910F91FF90EF90F9
:100880000895FC0111821082138212821582148253
:100890006115710551F0FB0101900020E9F73197D6
:1008A000AF01461B570B0C9420040895CF93DF93A0
:1008B000EC01FB018617970761F06081718161157A
:1008C000710529F0448155810E94200402C00E94D4
:1008D000D803CE01DF91CF910895CF93DF93EC0140
:1008E0006115710559F0FB0101900020E9F731977E
:1008F000AF01461B570B0E94200402C00E94D80380
:10090000CE01DF91CF910895EF92FF920F931F9345
:10091000CF93DF936115710511F480E01CC0411580
:100920005105C1F07B01EC018C819D818A01080F8A
:10093000191FB801CE010E940404882371F3288195
:1009400039818C819D81B701820F931F0E947A08A3
:100950001D830C8381E0DF91CF911F910F91FF9058
:10096000EF900895CF93DF9300D0CDB7DEB76983C2
:100970001A8241E050E0BE016F5F7F4F0E94840405
:100980000F900F90DF91CF910895CF93DF93DC010B
:10099000ED91FC91EB01A881B981309711F010978E
:1009A000C9F4109759F0EB012C813D81232B31F0D4
:1009B0008C9190E091958195910914C0309781F0C8
:1009C000DC0114968D919C911597892B49F08081BB
:1009D00090E008C0BD01CF01DF91CF910C94710868
:1009E00080E090E0DF91CF910895FC014481558132
:1009F000FB01248135814217530729F40E94C50465
:100A000021E0892B09F020E0822F0895FC01248148
:100A100035816217730720F480819181009729F452
:100A20001092150285E192E00895860F971F0895B0
:100A300008950E9472050E9418050E94E100C4E01A
:100A4000D2E00E9430012097E1F30E940402F9CF26
:100A50001F920F920FB60F9211242F933F938F93F3
:100A60009F93AF93BF938091170290911802A0912A
:100A70001902B0911A023091160223E0230F2D378C
:100A800020F40196A11DB11D05C026E8230F029692
:100A9000A11DB11D20931602809317029093180296
:100AA000A0931902B0931A0280911B0290911C022C
:100AB000A0911D02B0911E020196A11DB11D80934F
:100AC0001B0290931C02A0931D02B0931E02BF91C3
:100AD000AF919F918F913F912F910F900FBE0F90EB
:100AE0001F901895789483B7806483BF83B788601C
:100AF00083BF83B7846083BF87B7816087BF1EBC15
:100B00008EB582608EBD8EB581608EBD8FB58160E1
:100B10008FBD85B5846085BD85B5806485BDEAE8F7
:100B2000F0E0808182608083808181608083EBE857
:100B3000F0E0808181608083329A319A309A379ACE
:100B40001AB8089590E0FC013197EC30F10518F5E2
:100B5000EA5BFF4F0C9459068FB58F7702C08FB5B3
:100B60008F7D8FBD08958FB5877FFBCF85B58F7D36
:100B700085BD089583B78F7D83BF089580918B00D5
:100B80008F7707C080918B008F7D03C080918B0091
:100B9000877F80938B000895CF93DF9390E0FC01D3
:100BA000E752FF4F2491FC01E25FFE4F84918823BE
:100BB00061F190E0880F991FFC01ED5AFE4FC5913D
:100BC000D491FC01ED5BFE4FA591B491611109C078
:100BD0009FB7F8948881209582238883EC912E23F7
:100BE0000BC0623061F49FB7F8948881322F309542
:100BF00083238883EC912E2B2C939FBF06C08FB745
:100C0000F894E8812E2B28838FBFDF91CF91089530
:100C10001F93CF93DF93282F30E0F901EC55FF4F5E
:100C20008491F901E752FF4FD491F901E25FFE4F41
:100C3000C491CC23C1F0162F81110E94A205EC2F84
:100C4000F0E0EE0FFF1FED5BFE4FA591B4919FB753
:100C5000F894111104C08C91D095D82302C0EC9166
:100C6000DE2BDC939FBFDF91CF911F910895A1E20E
:100C70001A2EAA1BBB1BFD010DC0AA1FBB1FEE1F16
:100C8000FF1FA217B307E407F50720F0A21BB30B61
:100C9000E40BF50B661F771F881F991F1A9469F7DD
:100CA00060957095809590959B01AC01BD01CF0139
:100CB0000895EE0FFF1F0024001C0BBE0790F69155
:100CC000E02D09940F931F93CF93DF93823091050A
:100CD00010F482E090E0E0912102F091220220E005
:100CE00030E0A0E0B0E0309719F1408151810281FD
:100CF000138148175907C8F08417950769F41097AE
:100D000031F012960C93129713961C9327C0009300
:100D100021021093220222C02115310519F0421739
:100D2000530718F49A01BD01EF01DF01F801DBCF91
:100D300021153105F9F0281B390B2430310580F4D9
:100D40008A819B816115710521F0FB019383828368
:100D500004C09093220280932102FE01329644C087
:100D6000FE01E20FF31F81939193225031093983E1
:100D700028833AC020911F0230912002232B41F496
:100D800020910201309103013093200220931F0231
:100D900020910001309101012115310541F42DB759
:100DA0003EB74091040150910501241B350BE091A1
:100DB0001F02F0912002E217F307A0F42E1B3F0B55
:100DC0002817390778F0AC014E5F5F4F24173507BD
:100DD00048F04E0F5F1F5093200240931F028193F3
:100DE000919302C0E0E0F0E0CF01DF91CF911F913D
:100DF0000F910895CF93DF93009709F481C0FC0110
:100E0000329713821282A0912102B0912202109790
:100E100081F420813181820F931F20911F02309134
:100E200020022817390751F5F0932002E0931F02A2
:100E300067C0ED0120E030E0CE17DF0740F44A81C3
:100E40005B819E0141155105F1F0EA01F5CFD38395
:100E5000C28340815181840F951FC817D90759F467
:100E600088819981840F951F0296918380838A815E
:100E70009B81938382832115310529F4F09322020B
:100E8000E09321023DC0E901FB83EA834991599136
:100E9000C40FD51FEC17FD0761F480819181840F89
:100EA000951F0296E90199838883828193819B83B0
:100EB0008A83E0E0F0E012968D919C911397009761
:100EC00019F0FD01DC01F7CF8D919C9111979D01E7
:100ED0002E5F3F4F820F931F20911F0230912002FF
:100EE0002817390769F4309729F4109222021092DA
:100EF000210202C013821282B0932002A0931F022B
:100F0000DF91CF9108956F927F928F929F92AF92CF
:100F1000BF92CF92DF92EF92FF920F931F93CF93E6
:100F2000DF93009789F4CB01DF91CF911F910F914F
:100F3000FF90EF90DF90CF90BF90AF909F908F90F9
:100F40007F906F900C946206FC01E60FF71F9C01E6
:100F500022503109E217F30708F4A9C0EC01D901C6
:100F60000D911C91119706171707B0F00530110568
:100F700008F49BC0C80104978617970708F495C02A
:100F800002501109061B170B019311936D937C936B
:100F9000CF010E94FA0689C05B01A01AB10A4C0178
:100FA000800E911EA0912102B0912202612C712C21
:100FB000E12CF12C109709F446C08D919C9111976A
:100FC000A815B905B1F56C0142E0C40ED11CCA14D4
:100FD000DB0478F14C018A189B08640142E0C40EDE
:100FE000D11C1296BC9012971396AC91B5E0CB161B
:100FF000D10440F0B282A38391828082D9016D93A3
:101000007C9309C00E5F1F4F800F911FF9019183E0
:101010008083EB2DFA2FE114F10431F0D701139600
:10102000FC93EE93129741C0F0932202E0932102C9
:101030003CC06816790608F43C017D0112960D90BB
:10104000BC91A02DB7CF80911F02909120028816ED
:101050009906E1F466167706C8F480910001909134
:101060000101009741F48DB79EB740910401509162
:101070000501841B950BE817F907C8F4F0932002CB
:10108000E0931F02F901718360830FC0CB010E94BE
:1010900062067C01009759F0A801BE010E94680811
:1010A000CE010E94FA06C70104C0CE0102C080E052
:1010B00090E0DF91CF911F910F91FF90EF90DF9023
:1010C000CF90BF90AF909F908F907F906F9008953A
:1010D000FB01DC0102C001900D9241505040D8F755
:1010E0000895FB01DC018D91019080190110D9F365
:1010F000990B0895FB01DC0101900D920020E1F7AE
:10110000089510E0C4EBD0E004C0FE010E9459062F
:0C1110002196C53BD107C9F7F894FFCF2A
:10111C00000023028000000000000100000000011C
:10112C0000000101000000000100010001000001AD
:10113C00010001010100000000010100000101019A
:10114C000101002C002B002A002900280027002672
:10115C000025001C001D001E001F00200021002285
:10116C00002300000000004402A903D601F001E2B4
:04117C00018B0200E1
:020000021000EC
:10FC000001C0F4C011248FEF90E19EBF8DBF84B777
:10FC1000882349F0982F9A70923029F081FF02C012
:10FC200097EF94BF14D185E08EBD82E08BB988E157
:10FC30008AB986E08093950080E189B98EE0F4D09E
:10FC4000BD9A84E040E35CEF34E020E25DBD4CBD52
:10FC500036BF06B602FEFDCF98B3922798BBA89593
:10FC60008150A1F7C0E0D0E0D8D0813469F4D5D07C
:10FC7000182FDED0123809F4AFC0113811F486E025
:10FC800001C083E0C6D0AFC0823411F484E103C068
:10FC9000853419F485E0D4D0A6C0853579F4BDD07B
:10FCA000C82FBBD0D0E0D82B8BB7D7FF02C0816064
:10FCB00001C08E7F8BBFCC0FDD1F94C0863581F4D1
:10FCC000ACD08D3449F4A9D01BB7A7D01170880FE0
:10FCD000182B1BBF81E001C083E0B2D080E0D2CFFF
:10FCE000843609F04DC099D0082F10E0102F00275E
:10FCF00094D0082B92D0B82E7801C12CDD24D39457
:10FD00008CD0F60181936F01F1E0EF1AF108C1F791
:10FD10008FD085E4B81212C06801D3947E0100E050
:10FD200011E0C016D10609F45EC0F80161918F019F
:10FD3000C7019BD0FFEFEF1AFF0AF3CF40E050E07E
:10FD400063E0CE0153D06E01E12CFF24F394F70160
:10FD50004081818150E0582B61E0C60147D0F2E03C
:10FD6000CF0ED11C0250110982E0E80EF11C0115E2
:10FD7000110569F740E050E065E0CE0137D033C0AF
:10FD8000843719F54AD0082F10E0102F002745D0EE
:10FD9000082B43D0F82E4CD0E5E4FE120DC07E01B6
:10FDA000C7015BD036D001501109FFEFEF1AFF0AEF
:10FDB00001151105A9F717C07E01F70187917F0191
:10FDC00028D001501109C9F70EC0853739F430D059
:10FDD0008EE11FD087E91DD082E054CF813511F428
:10FDE00088E022D025D080E114D03ECFFC010A016A
:10FDF00060936800E89511248091680080FDFCCF35
:10FE0000667031F0452B21F481E180936800E8951C
:10FE100008955D9BFECF8CB908955F9BFECF5C99E2
:10FE200001C0A8958CB1089598E191BD81BD089558
:10FE3000F4DF803219F088E0F7DFFFCF84E1E9CF0B
:10FE4000CF93C82FEADFC150E9F7CF91F1CF282E29
:10FE500080E0EADFE0E0FF270994E199FECF9FBB55
:10FE60008EBBE09A99278DB30895262FE199FECF96
:10FE70009FBB8EBB2DBB0FB6F894E29AE19A0FBEE2
:04FE8000019608954A
:02FFFE000206F9
:040000031000FC00ED
:00000001FF
